:020000040000FA
:02000000AD2829
:040008008031B32868
:02000E00A60842
:10001000031D0B280800F93000000000000000005C
:1000200000000000000000000000000000000000D0
:10003000FF3E031D0C28000000000000000000002F
:1000400000000000000000000000000000000000B0
:10005000A60B0B2808002908240091001F30160564
:10006000031914192E2808002000911124001615D8
:100070002000911D3828080091112400161420003A
:10008000911D3F282808A900A9352B200800210030
:10009000951295111511951415148B160B11080056
:1000A00021000E148E1424009516151695151511A1
:1000B0009510151094171330920008006030A800B6
:1000C0003C2020002708A9000F30A9052B20200084
:1000D0002608A9002B203420080060302000A8004A
:1000E0003C2099302000A9002B20342008007A30D1
:1000F00021009900FF308C00FB308E0023008C0122
:100100008E0120008C018E018B170B17A10150204E
:1001100047206D20A401A5012408A6002508A700FA
:100120005E20A40A0319A50A25080F3C031D9A287E
:100130002408FF3C0318A028A51BA028A401A501A2
:1001400022000E1164302000A600072022000E15A8
:1001500064302000A60007208C282000A001A20106
:10016000A301803177280B1D090005302000950080
:080170000130A0000B11090091
:020000040001F9
:02000E00A4FF4D
:02001000FFDE11
:00000001FF
