:020000040000FA
:020000003C2999
:0400080080314529D5
:02000E00FB08ED
:10001000031D0B280800F93000000000000000005C
:1000200000000000000000000000000000000000D0
:10003000FF3E031D0C28000000000000000000002F
:1000400000000000000000000000000000000000B0
:10005000FB0B0B280800FA30FB000720FA30FB00EE
:100060000720FA30FB000720FA30FB000720FA0BCC
:100070002B2808007F0823009A009E1C3D280800BA
:100080002100B601FF01B40108303405B500B50800
:10009000031D0800FF35FD0DB60D7E083602031C5A
:1000A0005328B6007F14B40A44282100B401B701D4
:1000B000B50108303505B600B608031D0800B73590
:1000C000FD0DB40D7E083402031C6828B4003714FB
:1000D000B50A59287C08FD006430FE005520370819
:1000E000303EFF003A207C08FD006430FE004020D6
:1000F0003608FC007C08FD000A30FE005520370859
:10010000303EFF003A207C08FD000A30FE0040200F
:100110003608FC007C08303EFF003A2008007D08CD
:1001200085007C088400FC0A0319FD0A8008031975
:1001300008007D0885007C0884000008FF003A2044
:100140008F28200091109112210091109116230008
:100150001F129F159F101F101E139E161E129E1118
:100160001E111E109D171D139D121D129C011F3084
:100170009B00080021009512951115159510151476
:100180008B160B1108007A3021009900EC308C009E
:10019000FB308E0023008C018E0120008C018E012B
:1001A000183024008E002100951315170B168B179D
:1001B0000B17F701A120BA20F5017508023A031DBB
:1001C000DD28FA01FB017B08803AFC007408803AC4
:1001D0007C02031DED2873087A02031836294D307E
:1001E0002100B4004130B5005230B6004B30B700AA
:1001F0002030B800B9010030FD00B430FC008F2081
:1002000020308500003084007A0884070008FC0054
:100210006A2020302100B400BA004130B7004330DA
:10022000B8004530B9005030B6005330B500BB01BE
:100230000030FD00B430FC008F20203085000030FD
:1002400084007A0A84070008FC006A200D3021002F
:10025000B4000A30B500B6010030FD00B430FC0037
:100260008F200230FA070318FB0AE3280130FA0056
:100270002B20F5010B16DD28F301F401F501F60141
:10028000F801F901F0018031C3280B1D59297508C7
:10029000003A03195829023A03195829033A031D51
:1002A000582922000E110230F5000B1221001517FB
:1002B0000B118B1C0900200015082100BC00200038
:1002C00095012100BD0122000C1A68292100BD0AF8
:1002D00021003D1C6D2922000C1621003D187229B9
:1002E00022000C127508003A03197D29013A0319FE
:1002F0008429033A03199B299B29F301F401013056
:10030000F50022000E159B29633073027408031850
:100310008B2903198D29F41F9B292030850000307B
:10032000840073082100BD00F30A0319F40A3D0894
:1003300084073C0880002100BD01151FBD0A3D183F
:0A03400015173D1C15138B10090062
:020000040001F9
:02000E00A4FF4D
:02001000FFDE11
:00000001FF
