:020000040000FA
:020000005B297A
:0400080080316429B6
:02000E00FB08ED
:10001000031D0B280800F93000000000000000005C
:1000200000000000000000000000000000000000D0
:10003000FF3E031D0C28000000000000000000002F
:1000400000000000000000000000000000000000B0
:10005000FB0B0B280800FA30FB000720FA30FB00EE
:100060000720FA30FB000720FA30FB000720FA0BCC
:100070002B280800460823009A009E1C3D280800F3
:1000800041088500400884008008031908004108E1
:100090008500400884000008C6003A202100C00AFC
:1000A0000319C10A402820009110911221009110DB
:1000B000911623001F129F119F101F101E139E16D2
:1000C0001E129E111E111E109D171D139D121D1232
:1000D0009C0119309B0008002D30FA00FB014630CE
:1000E000FC00FD01B430FE00FF0101302100B4002E
:1000F000B501B601B701B801B901BA01BB013B08AE
:10010000803ABC007408803A3C02031D89287308B9
:100110003A020318080020308500003084003A08B5
:10012000840700087E027F082030850000308400AC
:100130003A08840700087C027D080318A1280319E7
:10014000A328FD1FC4283808BE003908BF00B80A1C
:100150000319B90A3E1CC428B408031DB228B50807
:100160000319BA283130C200C3010030C100C230C7
:10017000C000C3283030C400C5010030C600C43000
:10018000C0004608C10040202030850000308400B7
:100190003A08840700087A027B080318D12803195B
:1001A000D328FB1FF4283808BE003908BF00B80A5E
:1001B0000319B90A3E1CF428B408031DE228B50847
:1001C0000319EA283130C200C3010030C100C23037
:1001D000C000F3283030C400C5010030C600C43070
:1001E000C0004608C10040203808BC003908BD00E6
:1001F000B80A0319B90A3C1C1529B408031D0329C0
:10020000B50803190B293130BE00BF010030C10011
:10021000BE30C00014293030C200C3010030C40019
:10022000C230C0004408C1004020BE01BF01B40874
:100230000319BE0AB508031DBE013E08B4003F08FD
:10024000B500BA0A0319BB0A7F287A302100990049
:10025000EC308C00FB308E0023008C018E012000DE
:100260008C018E01183024008E0021009513151387
:100270000B16200098131817981218122100111449
:100280008B170B17F7015320F5017508023A031D70
:1002900045296C200D30FA000A30FB00FC010030CB
:1002A000C1007A30C00040200130FA002B20F50157
:1002B0008B100B164529F301F401F501F601F80145
:1002C000F901F001803125292000111C6F29181037
:1002D0000230F5000B1221001513200011108B1CA9
:1002E000090017082100C700200096019701750832
:1002F000003A03198229013A03198829033A03199C
:100300009F299F29F301F4010130F50018149F295A
:1003100063307302740803188F2903199129F41F9D
:100320009F29203085000030840073082100C80018
:10033000F30A0319F40A48088407470880002100DB
:10034000C801151FC80A48181517481C15138B102B
:020350000900A2
:020000040001F9
:02000E00A4FF4D
:02001000FFDE11
:00000001FF
