:020000040000FA
:02000000A32C2F
:040008008031BF2C58
:02000E004C089C
:10001000240091001F301605031914190A2808003E
:1000200020009111240016152000911D14280800AD
:1000300020009111240016142000911D1C2821007D
:100040004B08CC00CC3507200800D530F000C43078
:10005000F100BB30F200DC30F3004C08F0064D0834
:10006000F106F008031D0800F108031D0800F2085E
:10007000031D0800F308031D0800F00A0319F10A24
:1000800008002100CD01CE0104304D024E080318B6
:100090004B2803194D28CE1F73280310F20DF30DC2
:1000A000F11F5628F20A031D5628F30A0310F00D1B
:1000B000F10DF31F692808307005CF00D001CF087B
:1000C000031D6F28D008031D6F28F00A0319F10AD9
:1000D0006F28F01D6F28F00A031D6F28F10ACD0A62
:1000E0000319CE0A442872087006CF0073087106FF
:1000F000D00008006030CB00182021004A08CC0056
:100100000F30CC05072021004908CC000720102023
:10011000080021003608CC003708CD0025204120FA
:1001200007304F05CC00B5014C08083EB400031859
:10013000B50A080022000E1121004508C900460832
:10014000CA007A2022000E1521004708FD00480849
:10015000FE0008000800892008004B0885004A08B6
:100160008400053084070008CC00840A0008CD0014
:100170004A088400073084070008B600840A4C0847
:10018000B6064D080006B70089200800B408031D14
:10019000CC28B5080319080041204F08C3005008B7
:1001A0001F39C4004308C5004408C6006430C700B6
:1001B000C8019A20B4080319B503B4030800CC01A0
:1001C000CD01CE01CF01413079027A080318EA2827
:1001D00003190429FA1B04297908553C7A080318E5
:1001E000031DFA1BF42804290C307B027C08031839
:1001F000FB2803190429FC1B04297B08183C7C08F4
:100200000318031DFC1B0729D601D7010800D001E4
:10021000D101D401D5015508803AD8007808803A38
:100220005802031D15297708540203186E2920303F
:10023000850000308400540884070C300002031C41
:100240002B292030850000308400540884070008E2
:100250002D3C03182E29D601D70108002030850037
:1002600000308400540A84070C300002031C422929
:100270002030850000308400540A84070008183CB0
:100280000318582902307702D8007808D900031CD7
:10029000D9035508803ADA005908803A5A02031DFA
:1002A00053295808540203185829D601D7010800C9
:1002B000D00A0319D10ACC35CD0DCE0DCF0D20308B
:1002C000850000308400540884071E3000020318A3
:1002D0004C140230D4070318D50A0B290C305002F5
:1002E00051080318752903197729D11F7A29D601D6
:1002F000D70108004B0885004A08840002308000BE
:10030000840A033084074C08D8004D08D9004E08F1
:10031000DA004F08800084035A08800084035908DB
:10032000800084035808800007305002D200510832
:10033000D300031CD303D3080319A129D801D90181
:10034000B0297F30DC00DD015208FF390319AC29E8
:10035000DC35DD0DFF3EA5295C08D8005D08D9001D
:10036000D809D909DA01DB0158084C05D50059082C
:100370004D05D4004B0885004A08840005308407E9
:10038000840A540880008403550880005208DD0068
:100390005308DA00DB01DC01D31FD029DB03DC03C7
:1003A0005A085B045C04FF390319D929D501D80127
:1003B000EE294C08DE004D08DF004E08E0004F0833
:1003C000E100DD080319EA29E136E00CDF0CDE0C60
:1003D000DD03E2295E08D5005F08D8007F30D5052F
:1003E000D4014B0885004A08840007308407840A3A
:1003F000540880008403550880000130D600D701DE
:1004000008000130CC00CD01CE01CF01D001D101D7
:10041000D201D3014B3079027A080318112A03194B
:100420002B2AFA1B2B2A79085A3C7A080318031D39
:10043000FA1B1B2A2B2A17307B027C080318222A5E
:1004400003192B2AFC1B2B2A7B08203C7C08031851
:10045000031DFC1B2E2AD601D70108000230D40050
:10046000D5015508803AD8007808803A5802031D13
:100470003B2A770854020318DE2A2030850000301A
:100480008400540884070008323C03185D2A0130B8
:100490007702DA007808DB00031CDB035508803A9A
:1004A000DC005B08803A5C02031D582A5A0854029B
:1004B00003185D2AD601D7010800203085000030DE
:1004C0008400540884070008233C0318862A520835
:1004D000DA005308DB00D20A0319D30A5A1C862A11
:1004E000CE35CF0DD00DD10D4C08DC004D08DD0010
:1004F000DE01DF01CD1F7E2ADE03DF035C08CE04B0
:100500005D08CF045E08D0045F08D1042030850068
:1005100000308400540884070008173C0318AF2AF1
:100520005208DA005308DB00D20A0319D30A5A1C16
:10053000AF2ACE35CF0DD00DD10D4C08DC004D08C3
:10054000DD00DE01DF01CD1FA72ADE03DF035C082B
:10055000CE045D08CF045E08D0045F08D1045208C1
:10056000D8005308D900D20A0319D30A581CCE2A3E
:10057000CE35CF0DD00DD10D4C08DA004D08DB0083
:10058000DC01DD01CD1FC62ADC03DD035A08CE04E1
:100590005B08CF045C08D0045D08D104DA01DB01FC
:1005A000CC080319DA0ACD08031DDA015A08CC0079
:1005B0005B08CD00D40A0319D50A312A4B088500FF
:1005C0004A08840004308000840A033084074E08FF
:1005D000D8004F08D9005008DA0051088000840381
:1005E0005A0880008403590880008403580880005A
:1005F0004F08D5005008D800D4014A0884000530BF
:100600008407840A540880008403550880004E083B
:10061000D50000304F05D4004A0884000730840715
:10062000840A540880008403550880000130D600F5
:10063000D7010800CC01CD01CE01CF0100307A02F4
:10064000031D242B7D307902031C492BFA1F292B13
:10065000492B7A08013C031D2F2B7908363C0318DF
:10066000342BFA1B342B492B00307C02031D3A2B10
:100670007D307B02031C492BFC1F3F2B492B7C0840
:10068000003C031D452B7B089B3C03184C2BFC1B9B
:100690004C2BD401D5010800D001D10101307702E3
:1006A000D2007808D300031CD3035108803AD60047
:1006B0005308803A5602031D5F2B5208500203185C
:1006C000972B2030850000308400500884070008F4
:1006D0000A3C003C000203180A3A031D7D2B20301F
:1006E000850000308400500884070008193C003061
:1006F000003A0318802B031D802BD401D50108007C
:10070000CC35CD0DCE0DCF0D2030850000308400CE
:10071000500A84071E3000020315031C922B031D90
:10072000922B4C140230D0070318D10A4E2B4B08E1
:1007300085004A08840001308000840A0330840761
:100740004C08D0004D08D1004E08D2004F08800060
:1007500084035208800084035108800084035008F9
:1007600080004E08D1004F08D200D0014A08840012
:1007700005308407840A50088000840351088000F3
:100780004C08D10000304D05D0004A0884000730E5
:100790008407840A500880008403510880000130D7
:1007A000D400D50108004A08CE004B08CF004D0800
:1007B000003C0318E62B4F0885004E088400CE0A43
:1007C0000319CF0A4C088000CD03D72B4A08D0006C
:1007D0004B08D100080021000E148E142400951639
:1007E00015169515151195101510941713309200C4
:1007F000080060302100CB00182099302100CC0087
:100800000720102008007A3021009900EC308C007D
:10081000FB308E0023008C018E0120008C018E01A4
:10082000183024008E002100951315130B1620009C
:100830009813181798121816210011149512951173
:100840001515951015148B160B118B170B17EB2321
:10085000F923FF012100BB01BC017F08043A031DFD
:10086000622C22000E156430FD00FE0100302100D4
:10087000CB00C130CA00CC010930CD00D3230030F9
:10088000CB00C130CA001A23D408031D5A2CD50846
:10089000031D5A2C0030CB00C130CA00DF20D6081F
:1008A000031D5A2CD708031D5A2C0030CB00C13031
:1008B000CA0001220030CB00C130CA00AD20FF01C8
:1008C0008B100B16BE0120008C1A682C2100BE0A6A
:1008D0002100BD01BE080319BD0A3B083D060319EE
:1008E000772C3D08BB003D08C100C201AB20C00110
:1008F00020008E1A7D2C2100C00A2100BF01C008F3
:100900000319BF0A3C083F0603198C2C3F08BC00A2
:100910003F08C100C201C620B80803192D2CFD08EC
:10092000031D952CFE0803199F2CFD080319FE03D7
:10093000FD0B9F2CFE08031D9F2C22000E11AA20E8
:100940002100B8012D2CFF01F701F801F901FA018E
:10095000FB01FC01FD01FE012100B801B901BA0152
:10096000F401B401B501B601B701D530F000C430CF
:10097000F100BB30F200DC30F3008031032C0B1DA2
:10098000C82C05302000950001302100B8000B1163
:100990002000111CDF2C7F08013A0319D32C033AE5
:1009A0000319D52CD72CFA0ADD2CFC0ADD2C1810E3
:1009B0000B12210015130430FF00200011108B1CB6
:1009C000090017082100E2002000960197017F0826
:1009D000003A0319F52C013A0319FF2C033A0319C5
:1009E000072D013A03190F2D262DF901FA01FB01FC
:1009F000FC01F701F8010130FF001814262D210039
:100A00006208F9070318FA0A0230FF00262D2100B8
:100A10006208FB070318FC0A0330FF00262D633031
:100A2000770278080318162D0319182DF81F262DA4
:100A3000203085000030840077082100E300F70AA9
:100A40000319F80A63088407620880002100E301A3
:100A5000151FE30A63181517631C15138B10090083
:020000040001F9
:02000E00A4FF4D
:02001000FFDE11
:00000001FF
