:020000040000FA
:02000000892D48
:040008008031962D80
:02000E00FF08E9
:10001000031D0B280800F93000000000000000005C
:1000200000000000000000000000000000000000D0
:10003000FF3E031D0C28000000000000000000002F
:1000400000000000000000000000000000000000B0
:10005000FF0B0B280800FA30FF000720FA30FF00E2
:100060000720FA30FF000720FA30FF000720FE0BC0
:100070002B2808005A0823009A009E1C3D280800DF
:10008000DB01DC01DD01DE01DF01E001E101E20174
:10009000FE0120307E05FF00FF08031D0800DF354C
:1000A000E00DE10DE20DD20DD30DD40DD50DDB0D1C
:1000B000DC0DDD0DDE0D59085E02031D69285808B0
:1000C0005D02031D692857085C02031D6928560854
:1000D0005B02031C7A285608DB025708031C570FE3
:1000E000DC025808031C580FDD025908031C590F85
:1000F000DE025F14FE0A4928C101C201C30180303B
:10010000C400FE01FF0120307E027F0803188A2808
:1001100003198C28FF1F080041083D05C50042084F
:100120003E05C60043083F05C70044084005C80017
:10013000C90100304504460447044804FF39031947
:10014000C90AC908031DA8283130DA003A20AB28B3
:100150003030DA003A202100C436C30CC20CC10C86
:10016000FE0A0319FF0A83283030C1003130C20073
:100170003230C3003330C4003430C5003530C600DF
:100180003630C7003730C8003830C9003930CA00AF
:100190006130CB006230CC006330CD006430CE00E3
:1001A0006530CF006630D000D10100308500C1300D
:1001B00084003D08D2003E08D3003F08D400400828
:1001C000D5000030D600D700D9001030D80040202C
:1001D0005F0884070008DA003A200F302100BF05CD
:1001E000C00100308500C13084003D08D2003E08C7
:1001F000D3003F08D4004008D5000030D600D70017
:10020000D9000130D80040205F0884070008DA00D8
:100210003A202100BF01C00100308500C1308400B8
:100220003D08D2003E08D3003F08D4004008D50066
:100230000030D6001030D700D801D90140205F0827
:1002400084070008DA003A200F302100BE05BF0104
:10025000C00100308500C13084003E0884070008DA
:10026000DA003A202100BE01BF01C0010030850044
:10027000C13084003D08FE003E0CFF00FE0CFF0C68
:10028000FE0CFF0CFE0CFF0CFE0C7E088407000821
:10029000DA003A200F302100BD05BE01BF01C001C8
:1002A00000308500C13084003D0884070008DA0072
:1002B0003A2008007F0885007E0884008008031922
:1002C00008007F0885007E08840000082100DA000D
:1002D0003A20FE0A0319FF0A5A29200091109112B0
:1002E00021009110911623001F129F119F101F10C3
:1002F0001E139E161E129E111E111E109D171D13F9
:100300009D121D129C0119309B0008002100BD01A7
:10031000BE01BF01C0014130750276080318922961
:100320000319AC29F61BAC297508553C760803184F
:10033000031DF61B9C29AC290C30770278080318A2
:10034000A3290319AC29F81BAC297708183C7808B5
:100350000318031DF81BAF29C701C8010800C1011C
:10036000C201C501C6014608803AC9007408803A36
:100370004902031DBD29730845020318162A2030BF
:10038000850000308400450884070C300002031CFF
:10039000D3292030850000308400450884070008F8
:1003A0002D3C0318D629C701C8010800203085005C
:1003B00000308400450A84070C300002031CEA293F
:1003C0002030850000308400450A84070008183C6E
:1003D0000318002A02307302C9007408CA00031C03
:1003E000CA034608803ACB004A08803A4B02031DF4
:1003F000FB29490845020318002AC701C801080063
:10040000C10A0319C20ABD35BE0DBF0DC00D203093
:10041000850000308400450884071E300002031860
:100420003D140230C5070318C60AB3290C30410237
:10043000420803181D2A03191F2AC21F222AC701B6
:10044000C80108007F0885007E0884000230800013
:10045000840A033084073D08C9003E08CA003F08EB
:10046000CB004008800084034B08800084034A08C6
:10047000800084034908800007304102C30042081D
:10048000C400031CC403C4080319492AC901CA01D2
:10049000582A7F30CD00CE014308FF390319542A72
:1004A000CD35CE0DFF3E4D2A4D08C9004E08CA007D
:1004B000C909CA09CB01CC0149083D05C6004A0853
:1004C0003E05C5007F0885007E088400053084074E
:1004D000840A450880008403460880004308CE0053
:1004E0004408CB00CC01CD01C41F782ACC03CD0336
:1004F0004B084C044D04FF390319812AC601C90178
:10050000962A3D08CF003E08D0003F08D1004008A1
:10051000D200CE080319922AD236D10CD00CCF0CBF
:10052000CE038A2A4F08C6005008C9007F30C6058E
:10053000C5017F0885007E08840007308407840A8F
:10054000450880008403460880000130C700C801C8
:10055000080001302100BD00BE01BF01C001C10182
:10056000C201C301C4014B30750276080318BA2AD0
:100570000319D42AF61BD42A75085A3C76080318A6
:10058000031DF61BC42AD42A1730770278080318F3
:10059000CB2A0319D42AF81BD42A7708203C7808E0
:1005A0000318031DF81BD72AC701C8010800023031
:1005B000C500C6014608803AC9007408803A49025D
:1005C000031DE42A730845020318872B2030850099
:1005D00000308400450884070008323C0318062BCD
:1005E00001307302CB007408CC00031CCC03460816
:1005F000803ACD004C08803A4D02031D012B4B0878
:1006000045020318062BC701C801080020308500E9
:1006100000308400450884070008233C03182F2B72
:100620004308CB004408CC00C30A0319C40A4B1C7E
:100630002F2BBF35C00DC10DC20D3D08CD003E08AA
:10064000CE00CF01D001BE1F272BCF03D0034D0812
:10065000BF044E08C0044F08C1045008C204203033
:10066000850000308400450884070008173C031803
:10067000582B4308CB004408CC00C30A0319C40A12
:100680004B1C582BBF35C00DC10DC20D3D08CD0010
:100690003E08CE00CF01D001BE1F502BCF03D003A8
:1006A0004D08BF044E08C0044F08C1045008C204DE
:1006B0004308C9004408CA00C30A0319C40A491CF4
:1006C000772BBF35C00DC10DC20D3D08CB003E08D4
:1006D000CC00CD01CE01BE1F6F2BCD03CE034B0846
:1006E000BF044C08C0044D08C1044E08C204CB012D
:1006F000CC01BD080319CB0ABE08031DCB014B0872
:10070000BD004C08BE00C50A0319C60ADA2A7F08D4
:1007100085007E08840004308000840A033084074A
:100720003F08C9004008CA004108CB0042088000C9
:1007300084034B08800084034A088000840349082E
:1007400080004008C6004108C900C5017E08840039
:1007500005308407840A4508800084034608800029
:100760003F08C60000304005C5007E088400073001
:100770008407840A4508800084034608800001300D
:10078000C700C80108002100BD01BE01BF01C001B2
:1007900000307602031DCE2B7D307502031CF32B37
:1007A000F61FD32BF32B7608013C031DD92B7508BC
:1007B000363C0318DE2BF61BDE2BF32B00307802C1
:1007C000031DE42B7D307702031CF32BF81FE92B6C
:1007D000F32B7808003C031DEF2B77089B3C031894
:1007E000F62BF81BF62BC501C6010800C101C2019A
:1007F00001307302C3007408C400031CC403420820
:10080000803AC7004408803A4702031D092C430878
:1008100041020318412C203085000030840041083B
:10082000840700080A3C003C000203180A3A031D32
:10083000272C203085000030840041088407000800
:10084000193C0030003A03182A2C031D2A2CC5013C
:10085000C6010800BD35BE0DBF0DC00D203085009E
:1008600000308400410A84071E3000020315031C77
:100870003C2C031D3C2C3D140230C1070318C20A56
:10088000F82B7F0885007E08840001308000840AF0
:10089000033084073D08C7003E08C8003F08C90070
:1008A00040088000840349088000840348088000D1
:1008B0008403470880003F08C2004008C300C1010C
:1008C0007E08840005308407840A41088000840380
:1008D000420880003D08C20000303E05C1007E088D
:1008E000840007308407840A41088000840342089A
:1008F00080000130C500C60108007E08BF007F08E7
:10090000C0003E08003C0318902C400885003F08BA
:100910008400BF0A0319C00A3D088000BE03812C71
:100920007E08C1007F08C20008007A3021009900CB
:10093000EC308C00FB308E0023008C018E012000F7
:100940008C018E01183024008E00210095131513A0
:100950000B1620009813181798121816210011145E
:100960008B170B17FB016D21F9017908043A031D60
:10097000B52C0030FF00B430FE002100BD0109306D
:10098000BE007D240030FF00B430FE00C323C50844
:10099000031DDD2CC608031DDD2C0030FF00B43024
:1009A000FE008621C708031DDD2CC808031DDD2CB1
:1009B0000030FF00B430FE00A9223408003A0319C9
:1009C000EB2C013A0319FA2C033A0319092D063AC4
:1009D00003191A2D282D5530BD004E30BE004B3066
:1009E000BF002030C000C1010030FF00BD30FE005C
:1009F0005A21282D4E30BD004530BE004330BF0087
:100A00002030C000C1010030FF00BD30FE005A217F
:100A1000282D5330BD004F30BE004E30BF0059303E
:100A2000C0002030C100C2010030FF00BD30FE0018
:100A30005A21282D5230BD004330BE003630BF0051
:100A40002030C000C1010030FF00BD30FE005A213F
:100A500021003508BD003608BE003708BF00380841
:100A6000C0007C202030BD00BE010030FF00BD3042
:100A7000FE005A2121003508BD003608BE003708A7
:100A8000BF003808C000B42020302100BD00613014
:100A9000BE006430BF00C0007230C1003A30C200F6
:100AA000C3010030FF00BD30FE005A21210039088B
:100AB000BD003A08BE00BF01C001B42020302100B3
:100AC000BD006330BE006D30BF006430C0003A30FE
:100AD000C100C2010030FF00BD30FE005A212100DC
:100AE0003B08BD003C08BE00BF01C001B4200D3072
:100AF0002100BD000A30BE00BF010030FF00BD3044
:100B0000FE005A210130FE002B20F9018B100B163C
:100B1000B52CF901F301F401F501F601F701F80133
:100B2000FA01FC01FD01F0018031952C2000111C1F
:100B3000AD2D7908013A0319A12D033A0319A32D0C
:100B4000A52DF60AAB2DF80AAB2D18100B122100BB
:100B500015130430F900200011108B1C0900170830
:100B60002100E3002000960197017908003A03195B
:100B7000C32D013A0319CD2D033A0319D52D013A9E
:100B80000319DD2DF42DF501F601F701F801F3014C
:100B9000F4010130F9001814F42D21006308F50761
:100BA0000318F60A0230F900F42D21006308F70754
:100BB0000318F80A0330F900F42D63307302740847
:100BC0000318E42D0319E62DF41FF42D20308500C1
:100BD0000030840073082100E400F30A0319F40ACA
:100BE00064088407630880002100E401151FE40AFB
:0C0BF00064181517641C15138B10090005
:020000040001F9
:02000E00A4FF4D
:02001000FFDE11
:00000001FF
