:020000040000FA
:02000000192CB9
:040008008031282CEF
:02000E004108A7
:10001000240091001F301605031914190A2808003E
:1000200020009111240016152000911D14280800AD
:1000300020009111240016142000911D1C287F0817
:100040002100C100C135072008006030FF001820E2
:1000500021004008C1000F30C105072021003F08E2
:10006000C100072010200800CA01CB01CC01CD013E
:10007000CE01CA1A0800461C4B284208CB07430889
:100080000318430FCC0744080318440FCD07450855
:100090000318450FCE070310C90CC80CC70CC60CBB
:1000A0000310C20DC30DC40DC50DCA0A3928BF0106
:1000B000C001C101C20141307502760803186228EF
:1000C00003197C28F61B7C287508553C7608031814
:1000D000031DF61B6C287C280C3077027808031867
:1000E000732803197C28F81B7C287708183C7808AB
:1000F0000318031DF81B7F28C901CA010800C301AA
:10010000C401C701C8014808803AFF007408803A5A
:100110007F02031D8D28730847020318E62820304C
:10012000850000308400470884070C300002031C5F
:10013000A328203085000030840047088407000889
:100140002D3C0318A628C901CA01080020308500EB
:1001500000308400470A84070C300002031CBA28D0
:100160002030850000308400470A84070008183CCE
:100170000318D02802307302FF007408CB00031C60
:10018000CB034808803ACC004B08803A4C02031D50
:10019000CB287F0847020318D028C901CA010800EC
:1001A000C30A0319C40ABF35C00DC10DC20D2030EA
:1001B000850000308400470884071E3000020318C1
:1001C0003F140230C7070318C80A83280C304302C3
:1001D00044080318ED280319EF28C41FF228C901A9
:1001E000CA0108003E0885003D08840002308000F6
:1001F000840A033084073F08CB004008CC00410844
:10020000CD004208800084034D08800084034C0820
:10021000800084034B08800007304302C500440877
:10022000C600031CC603C60803191929CB01CC015B
:1002300028297F30CF00D0014508FF390319242930
:10024000CF35D00DFF3E1D294F08CB005008CC0004
:10025000CB09CC09CD01CE014B083F05C7004C08A6
:100260004005FF003E0885003D08840005308407F6
:10027000840A7F0880008403470880004508CF0077
:100280004608CC00CD01CE01C61F4829CD03CE03C0
:100290004C084D044E04FF3903195129C701C80108
:1002A00066293F08D0004008D1004108D20042082A
:1002B000D300CF0803196229D336D20CD10CD00C4D
:1002C000CF035A295008C7005108C8007F30C7051E
:1002D000FF013E0885003D08840007308407840A3A
:1002E0007F0880008403470880000130C900CA01EC
:1002F00008000130BF00C001C101C201C301C40137
:10030000C501C6014B307502760803188929031907
:10031000A329F61BA32975085A3C76080318031D68
:10032000F61B9329A32917307702780803189A2916
:100330000319A329F81BA3297708203C7808031880
:10034000031DF81BA629C901CA0108000230C70015
:10035000C8014808803AFF007408803A7F02031DF4
:10036000B329730847020318562A2030850000304D
:100370008400470884070008323C0318D52901305F
:100380007302FF007408CD00031CCD034808803AB7
:10039000CE004D08803A4E02031DD0297F08470247
:1003A0000318D529C901CA01080020308500003092
:1003B0008400470884070008233C0318FE294508E9
:1003C000CD004608CE00C50A0319C60A4D1CFE29F9
:1003D000C135C20DC30DC40D3F08CF004008D00089
:1003E000D101D201C01FF629D103D2034F08C104A5
:1003F0005008C2045108C3045208C40420308500C8
:1004000000308400470884070008173C0318272A97
:100410004508CD004608CE00C50A0319C60A4D1C82
:10042000272AC135C20DC30DC40D3F08CF004008B7
:10043000D000D101D201C01F1F2AD103D2034F081F
:10044000C1045008C2045108C3045208C40445083A
:10045000CB004608CC00C50A0319C60A4B1C462A25
:10046000C135C20DC30DC40D3F08CD004008CE00FC
:10047000CF01D001C01F3E2ACF03D0034D08C104D5
:100480004E08C2044F08C3045008C404FF01CD0144
:10049000BF080319FF0AC008031DFF017F08BF0042
:1004A0004D08C000C70A0319C80AA9293E088500DB
:1004B0003D08840004308000840A0330840741082A
:1004C000CB004208CC004308CD00440880008403E0
:1004D0004D08800084034C08800084034B08800092
:1004E0004208C7004308C800FF013D0884000530EA
:1004F0008407840A7F08800084034708800041083D
:10050000C70000304205FF003D0884000730840723
:10051000840A7F0880008403470880000130C900F6
:10052000CA010800BF01C001C101C201003076024A
:10053000031D9C2A7D307502031CC12AF61FA12AC7
:10054000C12A7608013C031DA72A7508363C03180A
:10055000AC2AF61BAC2AC12A00307802031DB22A4D
:100560007D307702031CC12AF81FB72AC12A7808F8
:10057000003C031DBD2A77089B3C0318C42AF81BC6
:10058000C42AC601C7010800C301C40101307302B7
:10059000FF007408C500031CC5034408803AC80066
:1005A0004508803A4802031DD72A7F0843020318F2
:1005B0000F2B20308500003084004308840700089A
:1005C0000A3C003C000203180A3A031DF52A2030B9
:1005D000850000308400430884070008193C00307F
:1005E000003A0318F82A031DF82AC601C7010800BB
:1005F000BF35C00DC10DC20D203085000030840014
:10060000430A84071E3000020315031C0A2B031D36
:100610000A2B3F140230C3070318C40AC62A3E0837
:1006200085003D08840001308000840A033084077F
:100630003F08C8004008C9004108CA0042088000BD
:1006400084034A0880008403490880008403480822
:1006500080004108C3004208C400FF013D08840037
:1006600005308407840A7F088000840343088000E3
:100670003F08C30000304005FF003D0884000730FC
:100680008407840A7F0880008403430880000130C7
:10069000C600C70108003E0885003D0884008008A8
:1006A0000319080022000E1121003E0885003D08B4
:1006B0008400073084070008C600840A0008C700C9
:1006C000C801C9018403E830C2000330C300C4017B
:1006D000C50134204B08FF004C08BF004D08C00086
:1006E0004E08C100252022000E156430F900FA01E1
:1006F00008003D08C0003E08C1003F08003C031848
:100700008C2B4108850040088400C00A0319C10AE7
:100710007F088000BF037D2B3D08C2003E08C30058
:10072000080021000E148E14240095161516951538
:1007300015119510151094171330920008006030B1
:10074000FF00182099302100C10007201020080068
:100750007A3021009900EC308C00FB308E002300B1
:100760008C018E0120008C018E01183024008E0037
:100770002100951315130B162000981318179812C3
:1007800018162100111495129511151595101514B0
:100790008B160B118B170B1791239F23FB017B08E3
:1007A000043A031D042C22000E156430F900FA01EE
:1007B00000302100BE00B430BD00FF010930BF0091
:1007C00079230030BE00B430BD009222C608031D5C
:1007D000FC2BC708031DFC2B0030BE00B430BD004D
:1007E0005720C908031DFC2BCA08031DFC2B003031
:1007F000BE00B430BD0079210030BE00B430BD0071
:100800004B23FB018B100B16FC080319CF2BF908A7
:10081000031D0D2CFA080319172CF9080319FA0304
:10082000F90B172CFA08031D172C22000E11FC01DE
:10083000CF2BFB01F301F401F501F601F701F801FB
:10084000F901FA01FC01FD01FE01F0018031A82B44
:100850000B1D302C0530200095000130FC000B11E1
:100860002000111C472C7B08013A03193B2C033A4A
:1008700003193D2C3F2CF60A452CF80A452C18107C
:100880000B12210015130430FB00200011108B1CEB
:10089000090017082100D4002000960197017B0869
:1008A000003A03195D2C013A0319672C033A031926
:1008B0006F2C013A0319772C8E2CF501F601F70104
:1008C000F801F301F4010130FB0018148E2C210013
:1008D0005408F5070318F60A0230FB008E2C21009D
:1008E0005408F7070318F80A0330FB008E2C633016
:1008F0007302740803187E2C0319802CF41F8E2CAD
:10090000203085000030840073082100D500F30AF0
:100910000319F40A55088407540880002100D50102
:10092000151FD50A55181517551C15138B100900DE
:020000040001F9
:02000E00A4FF4D
:02001000FFDE11
:00000001FF
