:020000040000FA
:02000000822C50
:0400080080318F2C88
:02000E00FF08E9
:10001000031D0B280800F93000000000000000005C
:1000200000000000000000000000000000000000D0
:10003000FF3E031D0C28000000000000000000002F
:1000400000000000000000000000000000000000B0
:10005000FF0B0B280800FA30FF000720FA30FF00E2
:100060000720FA30FF000720FA30FF000720FE0BC0
:100070002B280800510823009A009E1C3D280800E8
:10008000C701C801C301C401C50110304505C60040
:10009000C608031D0800C335C40DBE0DBF0DC70D36
:1000A000C80D41084802031D572840084702031C99
:1000B00060284008C7024108031CC803C802431453
:1000C000C50A4528D201D301D601D701D401103089
:1000D0005405D500D508031D0800D635D70DCD0D24
:1000E000CE0DD20DD30D50085302031D79284F08B1
:1000F0005202031C82284F08D2025008031CD3036B
:10010000D3025614D40A6728C0013C08CD003D082C
:10011000CE00BD1F9128CD09CE09CD0A0319CE0A04
:10012000C00A1030CF002730D00062205608BE0031
:100130005708BF00401CA128BE09BF09BE0A031909
:10014000BF0A3E08303ED1003A202100C2013C08DF
:10015000BE003D08BF00BD1FB328BE09BF09BE0ACF
:100160000319BF0AC20A1030C0002730C100402066
:100170004708BC004808BD00421CC328BC09BD0993
:10018000BC0A0319BD0AC0013C08CD003D08CE00E1
:10019000BD1FD028CD09CE09CD0A0319CE0AC00A49
:1001A000E830CF000330D00062205608BE00570868
:1001B000BF00401CE028BE09BF09BE0A0319BF0AE0
:1001C0003E08303ED1003A202100C2013C08BE006A
:1001D0003D08BF00BD1FF228BE09BF09BE0A0319B2
:1001E000BF0AC20AE830C0000330C10040204708FF
:1001F000BC004808BD00421C0229BC09BD09BC0A5C
:100200000319BD0AC0013C08CD003D08CE00BD1F4A
:100210000F29CD09CE09CD0A0319CE0AC00A6430D0
:10022000CF00D00162205608BE005708BF00401C16
:100230001E29BE09BF09BE0A0319BF0A3E08303E87
:10024000D1003A202100C2013C08BE003D08BF0099
:10025000BD1F3029BE09BF09BE0A0319BF0AC20A61
:100260006430C000C10140204708BC004808BD0000
:10027000421C3F29BC09BD09BC0A0319BD0AC001C3
:100280003C08CD003D08CE00BD1F4C29CD09CE094C
:10029000CD0A0319CE0AC00A0A30CF00D00162206D
:1002A0005608BE005708BF00401C5B29BE09BF09A5
:1002B000BE0A0319BF0A3E08303ED1003A20210091
:1002C000C2013C08BE003D08BF00BD1F6D29BE092C
:1002D000BF09BE0A0319BF0AC20A0A30C000C10121
:1002E00040204708BC004808BD00421C7C29BC09CE
:1002F000BD09BC0A0319BD0A3C08303ED1003A20B2
:1003000008003D0885003C088400800803190800A7
:100310003D0885003C0884000008D1003A202100F7
:10032000BC0A0319BD0A8129C001C101C201803084
:10033000C300FE01FF0120307E027F080318A229BE
:100340000319A429FF1F080040083C05C400410808
:100350003D05C50042083E05C60043083F05C700ED
:10036000C80100304404450446044704FF3903191A
:10037000C80AC808031DC0293130D1003A20C3295A
:100380003030D1003A202100C336C20CC10CC00C61
:10039000FE0A0319FF0A9B2930302100BC003130CE
:1003A000BD003230BE003330BF003430C0003530C5
:1003B000C1003630C2003730C3003830C400393095
:1003C000C5006130C6006230C7006330C8006430C9
:1003D000C9006530CA006630CB00CC010030850012
:1003E000BC3084007E08CD007F08CE000030CF00F6
:1003F0001030D0006220560884070008D1003A204F
:100400000F30FF0500308500BC3084007F08840772
:1004100000082100D1003A20FF0100308500BC30E7
:1004200084007E0E2100CD000F30CD057F0EF03907
:10043000CD044D0884070008D1003A200F30FE0596
:10044000FF0100308500BC3084007E08840700086E
:100450002100D1003A2008002000911091122100C3
:100460009110911623001F129F119F101F101E1331
:100470009E161E129E111E111E109D171D139D12F9
:100480001D129C0119309B0008003D302100BE0068
:10049000BF00C000C100C200C300C4000D30C500D1
:1004A0000A30C600C7010030BD00BE30BC0081214B
:1004B0004D30BE004130BF005230C0004B30C10053
:1004C0002030C200C3010030BD00BE30BC0081211D
:1004D0007508BC007608BD00842020302100BE00D5
:1004E000C4004130C1004330C2004530C300503029
:1004F000C0005330BF00C5010030BD00BE30BC009D
:1005000081217708BC007808BD0084200A302100D2
:10051000C8000D30C7002030BE002830BF00293091
:10052000C6006130C2006430C3006530C100C40041
:100530006C30C0007230C500C9010030BD00BE3053
:10054000BC008121FE01FF017F08803ABC007408D5
:10055000803A3C02031DAE2A73087E02031808008D
:100560004D30BE004130BF005230C0004B30C100A2
:100570002030C200C3010030BD00BE30BC0081216C
:1005800020308500003084007E0884070008BC000D
:10059000BD01842020302100BE00C4004130C100D4
:1005A0004330C2004530C3005030C0005330BF005C
:1005B000C5010030BD00BE30BC0081212030850067
:1005C000003084007E0A84070008BC00BD0184203E
:1005D0000D302100BE000A30BF00C0010030BD0058
:1005E000BE30BC0081210230FE070318FF0AA42A96
:1005F0002100BC01BD01BE01BF014130750276087A
:100600000318042B03191E2BF61B1E2B7508553CD3
:1006100076080318031DF61B0E2B1E2B0C307702D9
:1006200078080318152B03191E2BF81B1E2B7708AF
:10063000183C78080318031DF81B212BC601C701BD
:100640000800C001C101C401C5014508803AC800C5
:100650007408803A4802031D2F2B730844020318C4
:100660006B2B2030850000308400440884070C3058
:100670000002031C452B2030850000308400440814
:10068000840700082D3C0318482BC601C701080049
:100690002030850000308400440A84070C300002BA
:1006A0000318552BC601C7010800C00A0319C10A67
:1006B000BC35BD0DBE0DBF0D20308500003084005F
:1006C000440884071E30000203183C140230C4079B
:1006D0000318C50A252B0C30400241080318722B61
:1006E0000319742BC11F772BC601C70108007F08AF
:1006F00085007E088400033084073C08C8003D085C
:10070000C9003E08CA003F08800084034A088000F0
:1007100084034908800084034808800007304002B1
:10072000C2004108C300031CC303C30803199B2B69
:10073000C801C901AA2B7F30CC00CD014208FF3986
:100740000319A62BCC35CD0DFF3E9F2B4C08C800BE
:100750004D08C900C809C909CA01CB0148083C05B0
:10076000C50049083D05C4007F0885007E08840057
:1007700004308407840A440880008403450880000C
:100780004208CD004308CA00CB01CC01C31FCA2BCD
:10079000CB03CC034A084B044C04FF390319D32B79
:1007A000C501C801E82B3C08CE003D08CF003E083B
:1007B000D0003F08D100CD080319E42BD136D00C6E
:1007C000CF0CCE0CCD03DC2B4E08C5004F08C80063
:1007D0007F30C505C4017F0885007E08840006308F
:1007E0008407840A4408800084034508800001309F
:1007F000C600C70108007A3021009900EC308C0057
:10080000FB308E0023008C018E0120008C018E01B4
:10081000183024008E002100951315130B162000AC
:100820009813181798121816210011148B170B170C
:10083000FB012C22F9017908043A031D1B2C4522E7
:10084000B401B501B601B701B801B901BA01BB01E4
:100850000030FF00B430FE00F8223408BC00350838
:10086000BD003608BE003708BF0094212030FE00CE
:10087000FF010030BD007E30BC0081213408FE0045
:100880003508FF00CC2120302100BE006130BF00C0
:100890006430C000C1007230C2003A30C300C401ED
:1008A0000030BD00BE30BC0081213808FE00390890
:1008B000FF00CC2120302100BE006330BF006D302E
:1008C000C0006430C1003A30C200C3010030BD0036
:1008D000BE30BC0081213A08FE003B08FF00CC215D
:1008E0000D302100BE000A30BF00C0010030BD0045
:1008F000BE30BC0081210130FE002B20F9018B109D
:100900000B161B2CF301F401F901F501F601F701B7
:10091000F801FA01FC01FD01F0018031FB2B200000
:10092000111CA62C7908013A03199A2C033A0319D1
:100930009C2C9E2CF60AA42CF80AA42C18100B123E
:10094000210015130430F900200011108B1C090040
:1009500017082100D8002000960197017908003A75
:100960000319BC2C013A0319C62C033A0319CE2CE7
:10097000013A0319D62CED2CF501F601F701F80127
:10098000F301F4010130F9001814ED2C210058088E
:10099000F5070318F60A0230F900ED2C210058087B
:1009A000F7070318F80A0330F900ED2C63307302DF
:1009B00074080318DD2C0319DF2CF41FED2C2030F4
:1009C00085000030840073082100D900F30A031960
:1009D000F40A59088407580880002100D901151F1E
:0E09E000D90A59181517591C15138B10090048
:020000040001F9
:02000E00A4FF4D
:02001000FFDE11
:00000001FF
