:020000040000FA
:020000008B284B
:04000800803191288A
:02000E002908BF
:10001000240091001F301605031914190A2808003E
:1000200020009111240016152000911D14280800AD
:100030009111240016142000911D1B282808A900E6
:10004000A935072008002100951295111511951466
:1000500015148B160B11080021000E148E142400A9
:100060009516151695151511951015109417133032
:10007000920008006030A800182020002708A9007E
:100080000F30A905072020002608A900072010200E
:10009000080060302000A800182099302000A90036
:1000A0000720102008007A3021009900FF308C00D2
:1000B000FB308E0023008C018E0120008C018E010C
:1000C0008B170B17A1012C2023204920A401A50187
:1000D00020002408A6002508A7003A200430A40721
:1000E0000318A50A25080F3C031D78282408FF3CA7
:1000F00003187E28A51B7E28A401A501A6018C1E3D
:10010000A60A261C852822000E152000261868281D
:1001100022000E1168282000A001A201A301803155
:1001200053280B1D09000530200095000130A00068
:040130000B110900A6
:020000040001F9
:02000E00A4FF4D
:02001000FFDE11
:00000001FF
